S01300004C6162345F435F436F64652E7372656352
S11300000C942A000C9447000C9447000C9447006D
S11300100C9447000C9447000C9447000C94470040
S11300200C9447000C9447000C9447000C94470030
S11300300C9447000C9447000C9447000C94470020
S11300400C9447000C9447000C9447000C94470010
S11300500C94470011241FBECFE5D8E0DEBFCDBF0E
S113006010E0A0E6B0E0E2E9F4E002C005900D92F1
S1130070A037B107D9F720E0A0E7B0E001C01D9296
S1130080A837B207E1F70E94CC010C9447020C9404
S1130090000020916E0030916F002F5F3F4F27309A
S11300A0310529F030936F0020936E0006C021E0E3
S11300B030E030936F0020936E0020916000309107
S11300C0610029303105A9F440917000509171000C
S11300D04530510529F04530510569F450E001C01F
S11300E051E060916200709163006930710521F400
S11300F00FC050E001C050E029303105C1F56091D6
S11301007000709171006530710581F460E001C088
S113011061E0E0916200F0916300399741F4E0916D
S11301207200F0917300359711F40DC060E029302E
S1130130310509F0F8C0E0917000F0917100359735
S1130140C9F440E001C041E0E0916200F091630035
S1130150399789F4E0917200F0917300359759F45E
S1130160E0917400F0917500399729F409C040E0DA
S113017060E001C040E02930310509F040C0D8C03A
S113018071E001C070E0E0916200F0916300399782
S113019009F0CBC0E0917200F0917300359709F03B
S11301A0C4C0E0917400F0917500339709F0BDC0AC
S11301B0E0917600F0917700329709F0B6C09AC0CA
S11301C020917600309177002F5F3F4F3093770076
S11301D020937600109275001092740010927300B0
S11301E010927200109263001092620010927100DB
S11301F010927000109261001092600063C044235A
S1130200D9F020917400309175002F5F3F4F3093E7
S11302107500209374001092730010927200109273
S1130220630010926200109271001092700010929C
S113023061001092600046C06623B9F020917200FC
S1130240309173002F5F3F4F3093730020937200FF
S1130250109263001092620010927100109270006C
S113026010926100109260002DC0552399F02091E6
S11302706200309163002F5F3F4F309363002093FF
S1130280620010927100109270001092610010923E
S1130290600018C02930310579F420917000309144
S11302A071002F5F3F4F30937100209370001092C4
S11302B061001092600006C02F5F3F4F30936100D1
S11302C02093600048EC489F9001499F300D112411
S11302D033235CF40895019628173907E4F74F5F38
S11302E05F4F241735071CF4089540E050E080E088
S11302F090E0F1CF10927700109276001092750082
S113030010927400109273001092720010926300A5
S113031010926200109271001092700010926100AD
S113032010926000CFCF70E040E0711149CF67CFE9
S1130330E0917000F0917100359709F060CF22CF01
S113034020916E0030916F002F5F3F4F27303105B1
S113035029F030936F0020936E0006C021E030E056
S113036030936F0020936E0048EC489F9001499FA2
S1130370300D112433235CF40895019628173907AE
S1130380E4F74F5F5F4F241735071CF4089540E0EE
S113039050E080E090E0F1CF1BBA1ABA18BA17BA4D
S11303A015BA8FEF84BB12BA81BBCFEDDFEE0F2EEF
S11303B0F7EFEF2EF02D0F2EFBEFFF2EF02D0DEFAC
S11303C01EEF80916E0090916F008130910571F461
S11303D012BBE0917600F0917700EC59FF4F8081D9
S11303E085BB85E090E00E94A001EBCF82309105AF
S11303F071F402BBE0917400F0917500EC59FF4F69
S1130400808185BB85E090E00E94A001DACF833033
S1130410910571F4F2BAE0917200F0917300EC5915
S1130420FF4F808185BB85E090E00E94A001C9CF89
S11304308430910571F4E2BAE0916200F0916300B6
S1130440EC59FF4F808185BB85E090E00E94A001BC
S1130450B8CF059771F4D2BBE0917000F0917100B0
S1130460EC59FF4F808185BB85E090E00E94A0019C
S1130470A8CFC2BBE0916000F0916100EC59FF4F3E
S1130480808185BB85E090E00E9449009ACFF89472
S1050490FFCF98
S1130492090009003F065B4F666D7D077F6F01000F
S9030000FC
